:020000040800F2
:10000000000002203D210008BD1C0008BF1C0008A4
:10001000C11C0008C31C0008C51C0008000000002B
:10002000000000000000000000000000C71C0008E5
:10003000C91C000800000000CB1C0008CD1C0008F3
:100040008D2100088D2100088D2100088D210008D8
:100050008D2100088D2100088D2100088D210008C8
:100060008D2100088D2100088D2100088D210008B8
:100070008D2100088D2100088D2100088D210008A8
:100080008D2100088D2100088D2100088D21000898
:100090008D2100088D2100088D2100088D21000888
:1000A0008D2100088D2100088D2100088D21000878
:1000B0008D2100088D2100088D2100088D21000868
:1000C0008D2100088D2100088D2100088D21000858
:1000D0008D2100088D2100088D2100088D21000848
:1000E0008D2100088D2100088D2100088D21000838
:1000F0008D2100088D2100088D2100088D21000828
:100100008D2100088D210008D51C00088D210008D4
:100110008D2100088D2100088D2100088D21000807
:10012000ED1C00088D2100088D2100088D2100089C
:100130008D21000800000000000000008D21000853
:100140008D2100088D2100088D2100088D210008D7
:100150008D2100088D2100088D2100088D210008C7
:100160008D2100088D2100088D2100088D210008B7
:100170008D2100088D210008000000000000000013
:080180008D2100088D2100080B
:1001880010B5054C237833B9044B13B10448AFF3C9
:1001980000800123237010BD7000002000000000C3
:1001A8005829000808B5034B1BB103490348AFF3AE
:1001B800008008BD000000007400002058290008D5
:1001C80053B94AB9002908BF00281CBF4FF0FF31B6
:1001D8004FF0FF3000F072B9ADF1080C6DE904CEB4
:1001E80000F006F8DDF804E0DDE9022304B070470A
:1001F8002DE9F047089E04468846002B4BD18A42D9
:10020800154667D9B2FA82F24AB1C2F1200701FA5B
:1002180002F320FA07F7954047EA030894404FEAAB
:10022800154E230CB8FBFEF71FFA85FC0EFB17884A
:1002380043EA084307FB0CF1994209D9EB1807F187
:10024800FF3080F01B81994240F21881023F2B4415
:100258005B1AA4B2B3FBFEF00EFB103344EA03446E
:1002680000FB0CFCA44509D92C1900F1FF3380F0E0
:100278000781A44540F2048102382C4440EA074033
:10028800A4EB0C0400271EB1D4400023C6E90043A8
:100298003946BDE8F0878B4209D9002E00F0EB8083
:1002A8000027C6E9000138463946BDE8F087B3FAA9
:1002B80083F7002F47D18B4202D3824200F2FA80A3
:1002C800841A61EB030301209846002EE0D0C6E9AA
:1002D8000048DDE702B9FFDEB2FA82F2002A40F0F8
:1002E8008F80491B4FEA154E1FFA85F80127B1FB8D
:1002F800FEFC230C0EFB1C1143EA014308FB0CF126
:10030800994207D9EB180CF1FF3002D2994200F25A
:10031800CD808446591AA3B2B1FBFEF00EFB10142F
:1003280043EA044408FB00F8A04507D92C1900F15A
:10033800FF3302D2A04500F2B6801846A4EB0804A9
:1003480040EA0C409FE7C7F1200CBB4022FA0CFEA4
:100358004EEA030E01FA07F420FA0CF521FA0CF321
:100368004FEA1E482543B3FBF8F92C0C08FB193358
:100378001FFA8EFA44EA034309FB0AF49C4202FA84
:1003880007F200FA07F10BD91EEB030309F1FF305E
:1003980080F087809C4240F28480A9F1020973446E
:1003A8001B1BADB2B3FBF8F008FB103345EA03445E
:1003B80000FB0AFAA24508D91EEB040400F1FF333A
:1003C8006BD2A24569D90238744440EA0940A0FBBF
:1003D8000289A4EB0A044C45C2464B4654D351D07B
:1003E800002E69D0B1EB0A0564EB030404FA0CFC97
:1003F800FD40FC404CEA0505C6E90054002747E7E4
:10040800C2F1200320FA03F7954001FA02F021FA1D
:1004180003F34FEA154E3843010CB3FBFEF71FFAFE
:1004280085F80EFB173341EA034107FB08F38B42BB
:1004380004FA02F407D9691807F1FF3C2FD28B425E
:100448002DD9023F2944CB1A81B2B3FBFEF00EFB33
:10045800103341EA034100FB08F38B4207D96918BE
:1004680000F1FF3C17D28B4215D902382944C91A2A
:1004780040EA07473BE73746304609E70746E7E6DD
:100488001846FBE64145ABD2B8EB020A69EB0E020F
:1004980001381346A4E76046E9E7184695E767463A
:1004A800D1E781467CE702382C4447E7ACF1020CDF
:1004B8002B442FE7384608E73746E9E6704700BF80
:1004C80010B504460E4B18784FF47A73B3FBF0F36B
:1004D8000C4A1068B0FBF3F000F088F868B90F2CEC
:1004E80001D901200AE0002221464FF0FF3000F038
:1004F80049F8034B5C60002000E0012010BD00BFFC
:10050800000000200800002008B50B4B1A6842F4D0
:1005180000721A601A6842F480621A601A6842F41B
:1005280080721A60032000F01BF80020FFF7C8FF54
:1005380001F0A4FB002008BD003C0240034A1168FA
:10054800034B1B780B441360704700BF9C000020CE
:1005580000000020014B1868704700BF9C00002075
:10056800074AD36823F4E0631B041B0C000200F461
:10057800E060184340F0BF6040F40030D06070473E
:1005880000ED00E030B4174BDB68C3F30223C3F17E
:100598000704042C28BF04241D1D062D18D9033B6D
:1005A8004FF0FF3505FA04F421EA0401994005FAF1
:1005B80003F322EA0303194300280BDB0901C9B23C
:1005C80000F1604000F5614080F8001330BC7047CE
:1005D8000023E5E700F00F000901C9B2024B1954E6
:1005E800F4E700BF00ED00E014ED00E00138B0F1E1
:1005F800807F0AD2064B5860064AF02182F8231001
:100608000020986007221A6070470120704700BFD9
:1006180010E000E000ED00E000230F2B00F2D7808F
:10062800F0B583B039E0072200E00022AA403A433F
:100638000234674D45F82420664A1468F24302EAFA
:1006480004054F6817F4803F01D046EA0405614C61
:100658002560646802EA04054F6817F4003F01D07A
:1006680046EA04055B4C6560A46802EA04054F6825
:1006780017F4801F01D046EA0405564CA560E468CB
:1006880022404D6815F4001F01D046EA0402514C7F
:10069800E26001330F2B00F2988001229A400C6827
:1006A80004EA0206B242F4D14C68651E012D03D952
:1006B800112C01D0122C12D185685F000324BC4094
:1006C80025EA0405CC68BC402C438460456825EACB
:1006D80002054C68C4F300129A402A434260C46879
:1006E8005F000322BA40D24314408D68BD402543C1
:1006F800C5604C68022C01D0122C13D1DD080835D6
:1007080050F825E003F007044FEA840C0F2404FA9C
:100718000CF42EEA040E0C6904FA0CF444EA0E04F4
:1007280040F82540046822404C6804F00304BC40AB
:10073800224302604A6812F0805FAAD00022019228
:10074800254A546C44F480445464526C02F4804248
:100758000192019A9C08A51C1D4A52F8257003F0C5
:10076800030295000F22AA4027EA02071B4A90427B
:100778003FF45BAF02F5806290421AD002F58062C6
:10078800904218D002F58062904216D002F580623D
:10079800904214D002F58062904212D002F5806235
:1007A800904210D002F5806290423FF43CAF08229C
:1007B8003CE701223AE7022238E7032236E704221F
:1007C80034E7052232E7062230E703B0F0BD704770
:1007D80000380140003C014000380240000002405F
:1007E800014B1868704700BF0800002008B5FFF7E4
:1007F800F7FF044B9B68C3F38223034AD35CD840BA
:1008080008BD00BF003802408029000808B5FFF77E
:10081800E7FF044B9B68C3F34233034AD35CD840D9
:1008280008BD00BF00380240802900082DE9F04BC0
:1008380004460268136923F44053C1680B431361EB
:1008480083680269134342691343C2691A43016802
:10085800CB6823F4164323F00C031343CB600268E0
:10086800536923F4407381690B435361C369B3F53A
:10087800004F3BD00368714A934200F0AB8002F509
:100888008062934200F0A680FFF7B0FF4FF00009A6
:10089800061849EB090716EB000B47EB090C4FEA62
:1008A800CC0343EA5B734FEACB0293469C466368EA
:1008B8009A009B0F10EB0B0049EB0C01FFF780FC33
:1008C8005F4DA5FB00325109642202FB110213019E
:1008D8003233A5FB03235B0903F0F00202EB01129C
:1008E80003F00F03216813448B60A4E00368534AA4
:1008F800934239D002F58062934235D0FFF776FFF4
:1009080083464FF0000C06184CEB0C0716EB00085A
:1009180047EB0C094FEAC90343EA58734FEAC80288
:100928009046994662680021921841EB01031BEB3F
:1009380008004CEB0901FFF743FC414DA5FB0032D1
:100948005109642202FB1102D3003233A5FB0323B1
:100958005B095A0002F4F87202EB011203F0070374
:10096800216813448B6066E0FFF750FF80464FF024
:100978000009061849EB090716EB000B47EB090CB1
:100988004FEACC0343EA5B734FEACB0293469C469B
:1009980062680021921841EB010318EB0B0049EB48
:1009A8000C01FFF70DFC264DA5FB0032510964220E
:1009B80002FB1102D3003233A5FB03235B095A0063
:1009C80002F4F87202EB011203F0070321681344E2
:1009D8008B6030E0FFF71AFF4FF00009061849EB6B
:1009E800090716EB000B47EB090C4FEACC0343EA67
:1009F8005B734FEACB0293469C4663689A009B0F51
:100A080010EB0B0049EB0C01FFF7DAFB0C4DA5FBD3
:100A180000325109642202FB110213013233A5FB93
:100A280003235B0903F0F00202EB011203F00F034A
:100A3800216813448B60BDE8F08B00BF00100140B3
:100A48001F85EB512DE9F04105460F46164698469D
:100A5800069C2B681B6837EA03030CBF012300239D
:100A6800B3421DD1B4F1FF3FF3D02CB1FFF772FDB3
:100A7800A0EB0800A042ECD92A68D36823F4D0730D
:100A8800D3602A68536923F001035361202385F852
:100A9800393085F83A30002385F83830032000E0F3
:100AA8000020BDE8F08158B310B5044690F83930FD
:100AB8000BB3242384F839302268D36823F4005315
:100AC800D3602046FFF7B2FE2268136923F49043EF
:100AD80013612268536923F02A0353612268D3689B
:100AE80043F40053D3600020E063202384F83930B6
:100AF80084F83A3010BD80F8383001F0E1FAD8E7D0
:100B0800012070472DE9F04383B01E4690F8393034
:100B1800DBB2202B56D104460D469046002956D00C
:100B2800002A56D090F83830012B54D0012380F891
:100B380038304FF00009C0F83C90212380F8393054
:100B4800FFF708FD0746A4F82480A4F8268084F857
:100B5800389010E000963B46002280212046FFF79F
:100B680071FF002839D12B882268C3F3080353602A
:100B78002369C3B90235E38C9BB2B3B1E38C013B63
:100B88009BB2E384A368B3F5805FE3D000963B464D
:100B9800002280212046FFF755FF00BB2A782368F2
:100BA8005A600135E7E70135E5E700963B46002244
:100BB80040212046FFF746FF034690B9202284F8DB
:100BC800392000E00223184603B0BDE8F083012372
:100BD800F9E70123F7E70223F5E70323F3E7032304
:100BE800F1E70323EFE72DE9F04383B01E4690F8C1
:100BF8003A30DBB2202B5CD104460D4690460029E2
:100C08005BD0002A5BD090F83830012B59D00123F3
:100C180080F838304FF00009C0F83C90222380F863
:100C28003A30FFF797FC0746A4F82C80A4F82E80EA
:100C380084F838901DE000963B460022202120468B
:100C4800FFF700FF00283ED1236933B923685B68AA
:100C5800C3F3080325F8023B0BE023685B68DBB2AB
:100C680025F8013B05E023685B6803F07F032B70E0
:100C78000135E38D9BB2BBB1E38D013B9BB2E385AC
:100C8800A368B3F5805FD6D000963B4600222021AA
:100C98002046FFF7D7FEC0B92369002BE3D12368AC
:100CA8005B682B700135E4E7202384F83A30002094
:100CB80000E0022003B0BDE8F0830120FAE701203C
:100CC800F8E70220F6E70320F4E70320F2E7000044
:100CD80030B44A68124B9D6803F580739B68114CC9
:100CE800A4682B43234313F0010F15D13AB9426886
:100CF8000D4B13400A681343436000200DE044681D
:100D0800094B23400C6822438C682243C9680A4374
:100D18001A434260002000E0012030BC704700BF49
:100D28000020014000220140E010FCFF836813F01E
:100D3800010F14D110B4436823F0407323F4807377
:100D48000A688C68224313434360836823F4006372
:100D58004A681343836000205DF8044B7047012004
:100D6800704700004A68836813F0010F22D110B45D
:100D7800DAB1436823F468438A681343436083689D
:100D88000D4A1A400B6803F07063CC6823430C6962
:100D98002343134383604B68C26A22F470021343EF
:100DA800C36200205DF8044B7047436823F468432E
:100DB8004360E4E701207047FDFCFFC0F0B40A6817
:100DC80092FAA2F2B2FA82F22DE00E69C46893FA9E
:100DD800A3F5B5FA85F56D00032707FA05F524EAAA
:100DE800050493FAA3F5B5FA85F56D0006FA05F53D
:100DF8002C43C4604C68022C48D04C68056893FAB0
:100E0800A3F6B6FA86F67600032707FA06F625EA69
:100E1800060593FAA3F3B3FA83F35B0004FA03F32A
:100E28002B43036001320B6833FA02F462D00124C9
:100E380094402340F6D04C68013C012CC5D88E68FC
:100E4800846893FAA3F5B5FA85F56D00032707FAC8
:100E580005F524EA050493FAA3F5B5FA85F56D00BE
:100E680006FA05F52C438460CD68446893FAA3F626
:100E7800B6FA86F70126BE4024EA060493FAA3F6DA
:100E8800B6FA86F6B5402C4344609EE793FAA3F47D
:100E9800B4FA84F4072C15D84E69046A93FAA3F5BA
:100EA800B5FA85F5AD000F2707FA05F524EA05041C
:100EB80093FAA3F5B5FA85F5AD0006FA05F52C43C6
:100EC80004629AE74D69466A1C0A94FAA4F7B7FACD
:100ED80087F7BF004FF00F0C0CFA07F726EA070652
:100EE80094FAA4F4B4FA84F4A40005FA04F434439C
:100EF800446282E70020F0BC70470246036813F0A2
:100F0800400F2ED110B4006820F47F4020F0BF00BD
:100F18000B684C6823438C682343CC6823430C69D3
:100F280023434C6923438C692343CC6923430C6ACC
:100F3800234303431360536823F00403C88A03431D
:100F480053600B6AB3F5005F07D00020D36923F420
:100F58000063D3615DF8044B70478B8C13610020EC
:100F6800F4E70120D36923F40063D36170470000DC
:100F780030B4036A23F001030362036A4268846998
:100F880024F073040D682C4323F002030D692B43EE
:100F980023F001034D682B43104DA84203D005F5FB
:100FA8008065A84212D123F008034D6943EA8503FE
:100FB80023F004038D6843EA850322F480728D6967
:100FC8002A4322F40072CD6942EA450242608461F4
:100FD800CA6842630362002030BC704700000140C9
:100FE80030B4036A23F010030362036A4268846919
:100FF80024F4E6440D6844EA052423F020030D692F
:1010080043EA051323F010034D6843EA0513114D15
:10101800A84203D005F58065A84213D123F08003C8
:101028004D6943EA851323F040038D6843EA85132D
:1010380022F480628D6942EA850222F40062CD6959
:1010480042EAC50242608461CA6882630362002082
:1010580030BC70470000014030B4036A23F4807349
:101068000362036A4268C46924F073040D682C4360
:1010780023F400730D6943EA052323F480734D6854
:1010880043EA0523114DA84203D005F58065A8421F
:1010980013D123F400634D6943EA852323F4806365
:1010A8008D6843EA852322F480528D6942EA05124D
:1010B80022F40052CD6942EA45124260C461CA680E
:1010C800C2630362002030BC704700BF00000140CB
:1010D80030B4036A23F480530362036A4468C26924
:1010E80022F4E6420D6842EA052223F400530D6912
:1010F80043EA053323F480534D6843EA05330A4D28
:10110800A84203D005F58065A84204D124F48044A0
:101118008D6944EA85144460C261CA680264036246
:10112800002030BC704700BF000001400368304A0F
:10113800904212D0B0F1804F0FD0A2F57C4290427D
:101148000BD002F58062904207D002F5806290428F
:1011580003D002F57842904203D123F070034A6825
:101168001343234A90422AD0B0F1804F27D0A2F5EA
:101178007C42904223D002F5806290421FD002F553
:10118800806290421BD002F57842904217D002F557
:101198007052904213D002F5806290420FD002F54F
:1011A800806290420BD0A2F59832904207D002F5A7
:1011B8008062904203D002F58062904203D123F40A
:1011C8004073CA68134303608B68C3620B888362E9
:1011D800074B984203D003F58063984201D10B7CFA
:1011E8000363436943F0010343610020704700BF74
:1011F8000000014008B5102910D009D9B1F5807F49
:1012080010D0B1F5805F11D11146FFF761FF04E0FE
:1012180001290BD11146FFF7ABFE08BD1146FFF7B8
:10122800DFFEFAE71146FFF717FFF6E70120F4E7BC
:101238000B7B8A68134323F480634A68134323F4BF
:1012480000630A68134323F48053CA89134323F4C1
:1012580000530A69134323F480434A69134323F470
:10126800004313434364002070470000014B18609B
:10127800704700BF080000202DE9F04F97B0002606
:101288001396149615960E960F961096119612961A
:101298000A960B960C960D9606960796089609964A
:1012A800D94B5A6C42F480725A645A6C02F48072B8
:1012B8000392039A1A6B42F001021A631A6B02F046
:1012C80001020292029A1A6B42F004021A631A6B24
:1012D80002F004020192019A1A6B42F002021A63A8
:1012E8001B6B03F002030093009BF2230493032477
:1012F800059404A9C548FFF761FD302304930594BC
:10130800089604A9C248FFF759FD022304930594DF
:10131800089604A9BF48FFF751FDBF4B1A6822F091
:1013280060621A601A6822F0C0021A601A6822F411
:10133800403242F480321A601A6822F490721A60BD
:101348001A6822F400721A601A6842F480621A60FD
:101358001A6822F4C05242F400621A601A6822F431
:10136800C04242F400521A605A6922F004025A61DB
:101378004FF08073139314964FF480731593DFF82E
:10138800A88213A94046FFF7D1FC0E964FF4E0035C
:101398000F93109611964FF4407512950EA940467A
:1013A800FFF7E0FCD8F8083043F48063C8F8083049
:1013B800D8F8043023F02003C8F804304FF4803301
:1013C8000A930B960AA99548FFF782FC944995FA67
:1013D800A5F3B3FA83F34FF4007E2EFA03F351F822
:1013E800232022F01F0242F0090241F823208D4AEF
:1013F8004FF0007090FAA0F8B8FA88F820FA08F8C8
:1014080052F828A04FF0F87393FAA3F6B6FA86F6C6
:101418004FF0D87929FA06F64FF0070C0CFA06F6C1
:101428002AEA060693FAA3FABAFA8AFA29FA0AF90C
:1014380004FA09F946EA090642F8286095FAA5F679
:10144800B6FA86F62EFA06F651F8268028F4787849
:1014580048F4F07841F8268090FAA0F6D2F8008097
:1014680093FAA3F6B6FA86F64FF4700929FA06F647
:101478000CFA06F628EA060893FAA3F6B6FA86F6F0
:1014880029FA06F604FA06F648EA0606166095FAF8
:10149800A5F6B6FA86F62EFA06F651F8268028F44E
:1014A800F84848F4E05841F8268090FAA0F8B8FACD
:1014B80088F820FA08F852F828B093FAA3F6B6FA92
:1014C80086F64FF0A87A2AFA06F60CFA06F62BEA00
:1014D800060693FAA3FBBBFA8BFB2AFA0BFA04FA6B
:1014E8000AFA46EA0A0642F8286095FAA5F6B6FA14
:1014F80086F62EFA06F651F8268028F4782848F45D
:10150800E02841F8268090FAA0F6D2F800A093FAD5
:10151800A3F6B6FA86F64FF4400828FA06F60CFA4F
:1015280006F62AEA060A93FAA3F6B6FA86F628FA1F
:1015380006F604FA06F64AEA0606166095FAA5F6CD
:10154800B6FA86F62EFA06F651F826A02AF0F87AA8
:101558004AF4C00A41F826A090FAA0FABAFA8AFA20
:1015680020FA0AFA52F82AB093FAA3F6B6FA86F6DF
:101578004FF0907727FA06F60CFA06F62BEA0606DD
:1015880093FAA3FBBBFA8BFB27FA0BFB04FA0BFBC2
:1015980046EA0B0642F82A6095FAA5F6B6FA86F6E8
:1015A8002EFA06FE51F82E6026F07856064341F8CA
:1015B8002E6090FAA0FEBEFA8EFE20FA0EFE52F8B9
:1015C8002EB093FAA3F6B6FA86F64FF4401A2AFA22
:1015D80006F60CFA06F62BEA060693FAA3FBBBFA04
:1015E8008BFB2AFA0BFA04FA0AFA46EA0A0642F8C8
:1015F8002E6095FAA5F6B6FA86F64FF4807727FAA4
:1016080006F651F826E011E00038024000000240DA
:101618000008024000040240106402400023014018
:101628002C2001400C200140002001402EF01F0E0C
:101638004EF0040E41F826E090FAA0FEBEFA8EFEA7
:1016480020FA0EFE52F82EA093FAA3F6B6FA86F602
:1016580028FA06F60CFA06F62AEA060693FAA3FA18
:10166800BAFA8AFA28FA0AF804FA08F846EA0806DA
:1016780042F82E6095FAA5F5B5FA85F527FA05F52D
:1016880051F8256026F4787646F0A00641F82560E2
:1016980090FAA0F1B1FA81F1C84052F8201093FAFB
:1016A800A3F5B5FA85F529FA05F50CFA05FC21EA42
:1016B8000C0C93FAA3F3B3FA83F329FA03F39C40CF
:1016C8004CEA040442F8204017B0BDE8F08F00BF90
:1016D80030B591B000240D940E940F940894099499
:1016E8000A940B940C9404940594069407942F4B35
:1016F8005A6C42F400725A645A6C02F400720192F5
:10170800019A1A6B42F001021A631B6B03F0010382
:101718000093009B012302930323039302A9244807
:10172800FFF74CFB4FF080730D930E940F94214DEF
:101738000DA92846FFF7FAFA089409940A940B941D
:101748000C9408A92846FFF70DFBAB6843F48063A7
:10175800AB606B6823F020036B6017494FF440734C
:1017680093FAA3F3B3FA83F34FF4007222FA03F364
:1017780051F8232022F01F0241F823200F484FF090
:10178800007393FAA3F2B2FA82F2D34050F82320FE
:101798004FF0F87191FAA1F422F0070291FAA1F141
:1017A80042F0020240F8232011B030BD0038024058
:1017B80000000240002101402C2101400C21014081
:1017C80082B00A4B1A6B42F480021A631B6B03F453
:1017D80080030193019B064BDB68064B002283F8CC
:1017E80038234FF080725A6002B0704700380240C8
:1017F80000ED00E000E100E02DE9F0438DB00024A9
:10180800089409940A940B94444B1A6B42F0100202
:101818001A631A6B02F010020592059A1A6B42F0CD
:1018280004021A631A6B02F004020492049A1A6BF7
:1018380042F080021A631A6B02F080020392039A44
:101848001A6B42F001021A631A6B02F0010202924B
:10185800029A1A6B42F002021A631A6B02F0020231
:101868000192019A1A6B42F008021A631B6B03F08B
:1018780008030093009B2A484FF440038361DFF874
:10188800BC90284BC9F81830DFF8B480264BC8F84C
:101898001830264F264BBB61264E4FF48003B361A8
:1018A800C02306930125079506A9FFF787FA42F298
:1018B8000F0306930795089409940A9406A94846C5
:1018C800FFF77CFA0323069307940A9406A91A489B
:1018D800FFF774FA40F20C6306930795089409948D
:1018E8000A9406A94046FFF769FA40F201130693E5
:1018F8000795089409940A9406A93846FFF75EFAF2
:10190800402306930795089409940A9406A930463B
:10191800FFF754FA0DB0BDE8F08300BF003802406D
:101928000010024000000F2000000C06000C0240CE
:101938000000010100040240001C024000080240AF
:101948000000024008B52B4A136823F00F0343F048
:10195800050313601368A2F5E632136843F4804365
:10196800136002F5E432136823F0F80343F08003B0
:101978001360136843F0010313601F4B1B6813F0D7
:10198800020FFAD01C4A51681C4B0B4043F42053F9
:1019980043F008035360536823F4403353601368DB
:1019A80043F080731360144B1B6813F0007FFAD068
:1019B800114B9A6822F0F0029A609A6822F4E05279
:1019C80042F4A0529A609A6822F4604242F40042BB
:1019D8009A609A6822F0030242F002029A60064B6B
:1019E8009B6803F00C03082BF9D10548FFF73EFC70
:1019F80008BD00BF003C0240003802400080BFFF25
:101A08000068890908B5FEF77FFDFFF79BFFFFF720
:101A1800F3FEFFF7D5FEFFF72FFC00F04BF800F0C0
:101A280095F800F0DFF800F031FBFFF751FE00F009
:101A3800ADF900F029FA00F06BFA00F0C3FA084A91
:101A4800136843F002031360064C2368002198686A
:101A580000F0CCFB23680021586800F0C7FBFEE7C4
:101A680010E000E00C00002000B583B002A901F8E6
:101A7800010D01231A460348FFF744F803B05DF847
:101A880004FB00BFA000002000B583B0022006E0E0
:101A98000A2301220DF107010448FFF7A4F80028E2
:101AA800F6D19DF8070003B05DF804FBA000002004
:101AB8007047000070B592B028252A46002108A872
:101AC80000F08CFB0024059406941D4B5A6C42F4DC
:101AD80080525A645A6C02F480520192019A1A6B2D
:101AE80042F002021A631B6B03F002030093009B8F
:101AF80038230293022603960323049305230793AE
:101B080002A91048FFF75AF908944FF48273099311
:101B18000A940B9601230C934FF400730D930E95C2
:101B28000F9410940A231193074C08A92046FFF735
:101B3800E4F9636823F01003636012B070BD00BF5E
:101B480000380240000402400030014030B593B034
:101B58002822002108A800F041FB002405940694DF
:101B68001D4B1A6C42F480421A641A6C02F48042CB
:101B78000192019A1A6B42F002021A631B6B03F07E
:101B880002030093009B4FF46043029302250395E0
:101B9800032304930523079302A91048FFF70EF9BE
:101BA80008944FF4827309930A940B9501230C93BC
:101BB8004FF400730D9320230E930F9410940A236F
:101BC8001193074C08A92046FFF797F9636823F09B
:101BD8001003636013B030BD0038024000040240B7
:101BE8000038004030B593B02822002108A800F042
:101BF800F5FA0024059406941D4B1A6C42F4004231
:101C08001A641A6C02F400420192019A1A6B42F0AB
:101C180004021A631B6B03F004030093009B4FF448
:101C2800E0530293022503950323049306230793A5
:101C380002A91048FFF7C2F808944FF48273099379
:101C48000A940B9501230C934FF400730D932023F2
:101C58000E930F9410940A231193074C08A9204659
:101C6800FFF74BF9636823F01003636013B030BDCE
:101C78000038024000080240003C004082B00021C9
:101C880000910B4B5A6C42F480425A645A6C02F42D
:101C980080420092009A01911A6C42F080521A64B4
:101CA8001B6C03F080530193019B02B0704700BF87
:101CB800003802407047FEE7FEE7FEE7FEE77047A0
:101CC8007047704708B5FEF739FC08BD044B1B691F
:101CD80013F0010F03D0024B6FF001021A61704735
:101CE800000C0040704770B50D461646002404E00D
:101CF800FFF7CAFE287001340135B442F8DB3046DC
:101D080070BD70B51646002405E04D1C0878FFF735
:101D1800ABFE01342946B442F7DB304670BD000003
:101D280008B503460B4A126842B10A4A10680344D0
:101D38006A46934206D8074A136008BD054A064911
:101D48001160F2E700F020FA0C2303604FF0FF3037
:101D5800F3E700BF8C000020E80000204FF0FF30C0
:101D680070474FF400534B600020704700207047C5
:101D7800054BD3F8882042F47002C3F888204FF04E
:101D880000629A60704700BF00ED00E0F0B59DB0BA
:101D980000241794189419941A941B94202221460D
:101DA8000FA800F01BFA09940A940B940C940D9454
:101DB8000E940394049405940694079408942E4E64
:101DC800736C43F001037364736C03F001030293B3
:101DD800029B40F23F631993284D17A92846FFF745
:101DE800A5F92B6823F080032B60254F7B6843F40B
:101DF80000637B6060230F931094119412941394E2
:101E0800159416940FAA4FF480512846FFF7F2F95B
:101E18007B6823F480637B606B6823F070036B60DE
:101E2800AB6823F08003AB6009940A940B948DF897
:101E38003040ADF832404FF400530D930E9409A989
:101E48002846FFF7F5F9336B43F001033363336B2F
:101E580003F001030193019B4FF4006303930223F2
:101E680004930594069407940123089303A905484D
:101E7800FEF7A4FF1DB0F0BD00380240000001408D
:101E8800180001400000024010B586B000230193FD
:101E98000293039304930593194A116C41F00801C6
:101EA8001164126C02F008020092009A154AD26876
:101EB800154A82F832334FF4802151604F22ADF831
:101EC8000420029340F2E732039204930F4C01A9D5
:101ED8002046FFF72BF9236823F080032360A368CB
:101EE80023F4804323F00703A360636823F070039F
:101EF8006360A36823F08003A36006B010BD00BF31
:101F08000038024000ED00E000E100E0000C004075
:101F1800F0B597B000241194129413941494159466
:101F280020273A46214609A800F058F9039404945A
:101F380005940694079408941F4E736C43F48033F9
:101F48007364736C03F480330293029B40F23F6323
:101F580013931A4D11A92846FFF7E8F82B6823F0C8
:101F680080032B60AB6943F00803AB6160230993DE
:101F78000A940B940C940D9409AA01212846FFF7A2
:101F880039F9AB6923F00403AB61336B43F01003F9
:101F98003363336B03F010030193019B0397022310
:101FA80004930594069407940323089303A904480B
:101FB800FEF704FF17B0F0BD0038024000400140B2
:101FC8000010024070B596B00024CDF84640CDF818
:101FD8004A40CDF84E40CDF85240ADF85640202248
:101FE800214609A800F0FAF803940494059406948D
:101FF80007940894224E736C43F480237364736CC3
:1020080003F480230293029B40F21F33ADF844305F
:10201800632313931B4D11A92846FFF787F82B68F4
:1020280023F080032B60AB6943F00803AB616023A6
:1020380009930A940B940C940D9409AA012128463B
:10204800FFF7D8F8AB6923F00403AB61336B43F0B7
:1020580002033363336B03F002030193019B4FF4D4
:1020680000730393022304930594069407940323AF
:10207800089303A90448FEF7A1FE16B070BD00BF7F
:1020880000380240004801400004024008B50A48F0
:102098000A4B03604FF41643436000238360C36018
:1020A80003610C2242618361C361FEF7FCFC00B945
:1020B80008BDFFF7FDFCFBE7A0000020001401406D
:1020C80000B589B0002303930493059306930793FF
:1020D8000268164B9A4202D009B05DF804FB002151
:1020E800019103F592335A6C42F020025A645A6CFB
:1020F80002F020020192019A02911A6B42F0040246
:102108001A631B6B03F004030293029BC02303931F
:1021180002230493012305930323069308230793BB
:1021280003A90348FEF778FAD6E700BF0014014078
:1021380000080240DFF834D0002103E00C4B5B5864
:10214800435004310B480C4B42189A42F6D30B4AC1
:1021580002E0002342F8043B094B9A42F9D3FFF707
:1021680007FE00F017F8FFF74DFC7047000002204B
:10217800FC290008000000207000002070000020EA
:10218800E4000020FEE70000014B1868704700BF1C
:102198000C00002070B50D4E0D4CA41BA41000259A
:1021A800A54209D10B4E0C4C00F0D2FBA41BA41085
:1021B8000025A54205D170BD56F825309847013550
:1021C800EEE756F8253098470135F2E7F42900087C
:1021D800F4290008F4290008F829000802440346F5
:1021E800934200D1704703F8011BF9E700294FF427
:1021F80080630CBF0222002200F000B82DE9F743EB
:102208001D46514B1E6804460F46904626B1B369D9
:1022180013B9304600F090F94C4B9C4252D1746887
:10222800B8F1020F06D0B8F1010F00F28980002D35
:10223800C0F286802146304600F014F9616B41B146
:1022480004F14403994202D0304600F02BFA0023EF
:1022580063630023A3616360A3891B0603D5216917
:10226800304600F01FFAA38923F44A6323F00303DE
:10227800B8F1020FA3815DD001AB6A462146304612
:1022880000F0E4F9A3891843A0812DBB009D2846DE
:1022980000F000FA074600284ED1DDF80090A94565
:1022A8003CD14FF0FF30A38943F00203A381002300
:1022B800A36004F14703236023610123636103B032
:1022C800BDE8F083224B9C4201D1B468A8E7214BBA
:1022D8009C4208BFF468A3E7002FD8D0B36913B9AC
:1022E800304600F029F9B8F1010F08BFA38927602B
:1022F80004BF43F00103A381A38913F00800C4E9D4
:1023080004751BD013F0010018BF6D424FF0000395
:102318001DBFA360A5611846A560D0E7484600F038
:10232800B9F907460028BCD0A38943F08003A381EC
:102338004D46D3E70020B6E7A946F5E7A060BEE71B
:102348004FF0FF30BBE700BF0C000020AC290008AD
:10235800CC2900088C2900088A892DE9F041054616
:1023680010070C4658D44B68002B05DC0B6C002B6F
:1023780002DC0020BDE8F081E66A002EF9D00023D7
:1023880012F480522F68216A2B6032D0606DA389C5
:102398005A0705D56368C01A636B0BB1236CC01A62
:1023A80000230246E66A216A2846B047431CA389EF
:1023B80006D129681D2948D8294ACA40D60744D5D4
:1023C80000226260D9042269226004D5421C01D12E
:1023D8002B6803B96065616B2F600029C9D004F1CF
:1023E8004403994202D0284600F05CF9002060635B
:1023F800C0E701232846B047411CC8D12B68002BF1
:10240800C5D01D2B01D0162B01D12F60B1E7A389B0
:1024180043F04003A381ADE70F69002FA9D09307CC
:102428000E6808BF4B690F6018BF0023A6EB0708AA
:102438008B60B8F1000F9CDD43463A46216AA66AD4
:102448002846B047002806DCA38943F04003A3814F
:102458004FF0FF308EE70744A8EB0008E9E700BF1C
:102468000100402038B50B6905460C46DBB118B1B0
:1024780083690BB900F060F80C4B9C4209D16C6879
:10248800B4F90C307BB121462846BDE83840FFF747
:1024980063BF074B9C4201D1AC68F1E7054B9C42F6
:1024A80008BFEC68ECE7002038BD00BFAC29000885
:1024B800CC2900088C290008002310B50446C0E97F
:1024C8000033836081814366C281C0E9043383613C
:1024D800194608225C30FFF781FE054B6362054B05
:1024E800A362054BE362054B2462236310BD00BF62
:1024F8001D2800083F280008772800089B280008A6
:10250800014900F085B800BF6D24000870B54A1E67
:10251800682555430E4605F1740100F011F904468B
:1025280040B10021C0E900160C30A06005F1680236
:10253800FFF754FE204670BD836910B5044633BBCF
:10254800C0E912330365124B124A1B688262984233
:1025580004BF0123836100F01FF86060204600F08B
:102568001BF8A060204600F017F80022E060042164
:102578006068FFF7A1FF01220921A068FFF79CFF0F
:1025880002221221E068FFF797FF0123A36110BD23
:102598008829000809250008F8B51B4B1E68B3698F
:1025A800074613B93046FFF7C7FF4836D6E9013466
:1025B800013B03D5336833B13668F7E7B4F90C50FB
:1025C8006DB16834F4E704213846FFF79FFF3060A7
:1025D8000028F1D10C233B6004462046F8BD0B4B84
:1025E8006566C4E90055A560C4E90335C4E9055525
:1025F8000822294604F15C00FFF7F0FDC4E90D55F7
:10260800C4E91255E9E700BF882900080100FFFF67
:102618002DE9F8438046894600F14804002614B99C
:102628003046BDE8F883D4E90175013F01D5246837
:10263800F5E7AB89012B07D9B5F90E30013303D083
:1026480029464046C84706436835EEE770B50E464A
:10265800B1F90E10002996B014461D4607DA00237A
:102668002B60B3891A0610D44FF480630EE06A46D3
:1026780000F036F90028F2DB019A02F47042A2F564
:1026880000535A425A412A60EEE740230020236053
:1026980016B070BD024B0146186800F051B800BF73
:1026A8000C00002038B50546002945D051F8043CF7
:1026B8000C1F002BB8BFE41800F036F91F4A136846
:1026C800104633B9636014602846BDE8384000F00E
:1026D8002CB9A3420CD921686218934204BF1A6826
:1026E8005B68636004BF521822600460ECE713461D
:1026F8005A680AB1A242FAD919685818A0420BD1EF
:1027080020680144581882421960DDD11068526867
:102718005A6001441960D7E702D90C232B60D3E72C
:10272800206821188A4204BF11685268626004BF99
:10273800091821605C60C7E738BD00BF940000201D
:1027480070B5CD1C25F0030508350C2D38BF0C25B8
:10275800002D064601DBA94203D90C233360002073
:1027680070BD00F0E1F8214A1468214691B9204C67
:1027780023681BB9304600F03DF8206029463046F2
:1027880000F038F8431C24D10C233360304600F0A5
:10279800CCF8E4E70B685B1B18D40B2B0FD90B6044
:1027A800CD50CC18304600F0C0F804F10B00231DC2
:1027B80020F00700C31AD3D05A42E250D0E78C4227
:1027C8004B6816BF636013600C46EBE70C4649681C
:1027D800CCE7C41C24F00304A04205D0211A3046DB
:1027E80000F008F80130CFD02560DBE79400002026
:1027F8009800002038B5064C00230546084623609B
:10280800FFF78EFA431C02D1236803B12B6038BD51
:10281800E000002010B50C46B1F90E1000F086F863
:102828000028ABBF636DA3891B1823F48053ACBF8A
:102838006365A38110BD2DE9F0411F468B89DB0537
:1028480005460C46164605D502230022B1F90E109E
:1028580000F058F8A389B4F90E1023F48053A3812B
:1028680032463B462846BDE8F04100F017B810B59F
:102878000C46B1F90E1000F045F8431CA38915BFAA
:10288800606523F4805343F48053A38118BFA38168
:1028980010BDB1F90E1000F013B8000038B5074CA0
:1028A800054608461146002222601A46FFF729FA13
:1028B800431C02D1236803B12B6038BDE00000201F
:1028C80038B5064C0023054608462360FFF746FA4C
:1028D800431C02D1236803B12B6038BDE0000020FF
:1028E80038B5074C00230546084611462360FFF714
:1028F80038FA431C02D1236803B12B6038BD00BFEE
:10290800E000002038B5074C05460846114600226D
:1029180022601A46FFF72AFA431C02D1236803B142
:102928002B6038BDE00000207047704738B5074C71
:10293800054608461146002222601A46FFF7D3F9D9
:10294800431C02D1236803B12B6038BDE00000208E
:10295800F8B500BFF8BC08BC9E467047F8B500BF84
:08296800F8BC08BC9E46704754
:10297000000000000000000001020304060708092F
:10298000000000000102030410000020000000000D
:102990000000000000000000000000000000000037
:1029A0000000000000000000000000000000000027
:1029B0000000000000000000000000000000000017
:1029C0000000000000000000000000000000000007
:1029D00000000000000000000000000000000000F7
:0C29E000000000000000000000000000EB
:0829EC000CD8FF7F0100000080
:0429F400AD01000829
:0429F8008901000849
:1029FC0001000000100000000024F4001000002072
:102A0C0000000000AC290008CC2900088C29000823
:102A1C0000000000000000000000000000000000AA
:102A2C00000000000000000000000000000000009A
:102A3C00000000000000000000000000000000008A
:102A4C00000000000000000000000000000000007A
:102A5C00000000000000000000000000000000006A
:040000050800213D91
:00000001FF
